:100000000C943D020C9478020C9478020C947802C3
:100010000C9478020C9478020C9478020C94780278
:100020000C9478020C9478020C9478020C94780268
:100030000C9478020C9478020C9478020C94780258
:100040000C9478020C9478020C9478020C94780248
:100050000C9478020C9478020C9478020C94780238
:100060000C9478020C9478020F9308E500936000DA
:1000700007E4009360000F9108950F9308E5009343
:10008000600008E0009360000F9108950F930091C5
:1000900060000F7B009360000F9108950F93009113
:1000A000BB000F3F19F00FEF0093BB0004E4009377
:1000B000BC004AD043D00F9108950F934DD00091CA
:1000C000BC0000620093BC000091BC0007FFFCCFA5
:1000D0000F9108950F930091BC0000610093BC0044
:1000E00025D00F9108950F930091BC000F7D0093D0
:1000F000BC000F9108958093B80008950F938093EA
:10010000BB00F1DF0091BC0007FFFCCF0F91089509
:100110000F930CD00091BC0007FFFCCF8091BB0077
:100120000F9108958091B900887F08950F930091F1
:10013000BC000F770093BC000F9108950F9306B198
:10014000006308B90F9108950F930091B9000C7FD7
:100150000093B9000F9108950F930091BC000160C6
:100160000093BC000F9108950F930091BC000E7F87
:100170000093BC000F91089583BF08950F931F93C0
:1001800014E0082F02950F700BD0902F082F0F70DE
:1001900007D0802F8F93892F9F911F910F910895E2
:1001A0001F9310E3003059F111E3013041F112E3E4
:1001B000023029F113E3033011F114E30430F9F0B4
:1001C00015E30530E1F016E30630C9F017E3073018
:1001D000B1F018E3083099F019E3093081F011E427
:1001E0000A3069F012E40B3051F013E40C3039F0AE
:1001F00014E40D3021F015E40E3009F016E4012F5F
:100200001F9108950F931AD01ED008EF0093C100DC
:1002100006E00093C2000F9108950F930091C10072
:100220000F710093C1000F9108950F930091C000CA
:1002300005FFFCCF8093C6000F9108950AB10260BC
:100240000E7F0AB908951F9300E017E60093C500DA
:100250001093C4001F9108950F930091C000006295
:100260000093C0000F9108950F930091C10080305A
:1002700011F0046001C0077F0093C1000F91089541
:100280000F930091C100803011F0056001C00F7E16
:100290000093C1000F9108950F931F938F939F9325
:1002A000AF93BF938F939F93AF93BF9314E08F91BE
:1002B00065DF082F892FB9DF802FB7DF1A9510303F
:1002C000B1F78AE0B2DFBF91AF919F918F911F91FB
:1002D0000F9108950F931F938F939F938F939F93E5
:1002E00012E08F914BDF082F892F9FDF802F9DDF3A
:1002F0001A951030B1F78AE098DF9F918F911F9186
:100300000F9108950F930091C10006FD08D00F9141
:1003100008950F930FB707FD02D00F9108950F9323
:100320001F9303B110E2012705B91F910F910895A2
:100330000F9303B1006205B90F9108950F9303B1B4
:100340000F7D05B90F9108950F9300E204B90F9145
:1003500008958F93A3DE88E4CEDE65D08F91089553
:10036000AF93BF93ADB78F938DB78F91BEB78F9378
:100370009F938F939F93A1DED5DE883021F080314B
:1003800011F065D042C08EEEB9DECCDE883111F0BE
:100390005ED03BC011978C91B1DE1196C3DE8832DE
:1003A00011F055D032C08C91A9DEBCDE883211F03C
:1003B0004ED02BC08FDE72DE80DEB4DE883021F0BE
:1003C000803111F044D021C08FEE98DEABDE803456
:1003D00011F03DD01AC011978C9190DE119698DEE5
:1003E00013978C9313969EDE803511F030D00DC09C
:1003F0008C9184DE8DDE12978C93129693DE8F9310
:1004000069DE8F91803509F022D012978C91129677
:1004100013979C911396ADBF8F938DB78F91BEBFED
:10042000BF91AF910895AF93BF93CF93DF93A1E0B6
:10043000A0930001A395A0930101DF91CF91BF91FB
:10044000AF9108950F931F931F910F9108950F93EC
:1004500000910001013009F402D00F9108950DDEE2
:1004600088950895CC931196DC93089508958F9301
:100470000DDEBB27AA278F9118950FEF0DBF08E05F
:100480000EBF62DF81E078DEBDDEC7DE62DF78941A
:1004900003D08895FECF08950F938F939F93AF93CA
:1004A000CF93DF93AAEAC9E8D0E00BE09A2FA39597
:1004B0008A2FA39555DF8F9312D0892F10D08F915B
:1004C00098832196888321960A9581F70E948F014F
:1004D000DF91CF91AF919F918F910F9108958F935D
:1004E0009F934CDEA2DE892FA0DE9F918F9108950D
:0204F00018955D
:1004F20000000000000000000000000000000000FA
:1005020000000000000000000000000000000000E9
:1005120000000000000000000000000000000000D9
:1005220000000000000000000000000000000000C9
:1005320000000000000000000000000000000000B9
:1005420000000000000000000000000000000000A9
:100552000000000000000000000000000000000099
:100562000000000000000000000000000000000089
:100572000000000000000000000000000000000079
:100582000000000000000000000000000000000069
:10059200000009101828F800203008104050F80018
:1005A20048580000000000000000000000000000A9
:0805B200000000000000000041
:00000001FF
