:100000000C94AF010C94D6010C94D6010C94D6013B
:100010000C94D6010C94D6010C94DE010C94D601FC
:100020000C94D6010C94D6010C94D6010C94D601F4
:100030000C94D6010C94D6010C94D6010C94D601E4
:100040000C94D6010C94D6010C94D6010C94D601D4
:100050000C94D6010C94D6010C94D6010C94D601C4
:100060000C94D7010C94D6010F9305E00093BC00CB
:100070000E949B000E9495000F9108950F9300919C
:10008000BC0000620093BC000091BC0007FFFCCFE5
:100090000F9108950F930091BC0000610E948D00A4
:1000A0000091BC0007FFFCCF0F9108950F930091C2
:1000B000BC000F7D0093BC000F9108958093B800A1
:1000C00008950F93082F0C6F0093B9000F910895B6
:1000D0008093BA0008950F93082F0E7F803009F0A7
:1000E0000160802F0F9108950F938093BB000E94B1
:1000F00056000091BC0007FFFCCF0F9108950F93AD
:100100008093BB000E948D000F9108958091BB00E9
:1001100008958091B900887F08950F930091BC00E5
:100120000F770093BC000F9108950F9306B1006301
:1001300008B90F9108950F930091B9000C7F0093B7
:10014000B9000F9108950F930F91089583BF0895FB
:100150000F931F9314E0082F02950F700E94BC00AC
:10016000902F082F0F700E94BC00802F8F93892F33
:100170009F911F910F9108951F9310E3003059F143
:1001800011E3013041F112E3023029F113E30330AE
:1001900011F114E30430F9F015E30530E1F016E352
:1001A0000630C9F017E30730B1F018E3083099F0D2
:1001B00019E3093081F011E40A3069F012E40B30E0
:1001C00051F013E40C3039F014E40D3021F015E453
:1001D0000E3009F016E4012F1F9108950F930E942D
:1001E0000C010E94110108EF0093C10006E000938A
:1001F000C2000F9108950F930091C1000F710093F9
:10020000C1000F9108950F930091C00005FFFCCF2E
:100210008093C6000F9108950AB102600E7F0AB95B
:1002200008951F9300E017E60093C5001093C400E3
:100230001F9108950F930091C00000680093C000C3
:100240000F9108958091C6000E94270108950F9391
:100250000091C00000620093C0000F9108950F93B9
:100260000091C100803011F0046001C0077F00934D
:10027000C1000F9108950F930091C100803011F0DB
:10028000056001C00F7E0093C1000F9108950F9388
:100290001F938F939F93AF93BF938F939F93AF932E
:1002A000BF9314E08F910E94A800082F892F0E940D
:1002B0000301802F0E9403011A95103099F78AE0FC
:1002C0000E940301BF91AF919F918F911F910F9158
:1002D00008950F931F938F939F938F939F9312E093
:1002E0008F910E94A800082F892F0E940301802F60
:1002F0000E9403011A95103099F78AE00E940301C9
:100300009F918F911F910F9108950F930091C100BC
:1003100006FD0E9494010F9108950F930FB707FDFA
:100320000E9494010F9108950F931F9303B110E25F
:10033000012705B91F910F9108950F9303B1006232
:1003400005B90F9108950F9303B10F7D05B90F9172
:1003500008950F9300E204B90F91089508950E9443
:10036000A90181E00E94A6000E94EE000E94FB000D
:100370000E94340088E40E945E0078940E943E004F
:100380008EEE0E9474000E9489000E94CA01889526
:10039000FECF08958F939F930E94A8000E940301AF
:1003A000892F0E9403019F918F91089518950F93B3
:0E03B0000E948900883059F70F911895189512
:00000001FF
