:100000000C94F8020C945F030C945F030C945F0350
:100010000C945F030C945F030C94F2020C945F0346
:100020000C945F030C945F030C945F030C945F03C8
:100030000C945F030C945F030C945F030C945F03B8
:100040000C945F030C945F030C945F030C945F03A8
:100050000C945F030C945F030C945F030C945F0398
:100060000C945F030C945F030F9308E5009360000A
:1000700007E4009360000F9108950F9308E5009343
:10008000600008E0009360000F9108950F930091C5
:1000900060000F7B009360000F9108950F93009113
:1000A000BB000F3F19F00FEF0093BB0080930001DE
:1000B0008093BC004CD045D00F9108950F930091D0
:1000C0000001046A0093BC000091BC0007FFFCCF54
:1000D0000F9108950F930091BC0000610093BC0044
:1000E0000091BC0004FDFCCF0F9108950F93009187
:1000F000BC000F7D0093BC000F9108958093B80061
:1001000008950F938093BB00F1DF0091BC0007FFBF
:10011000FCCF0F9108950F930CD00091BC0007FF06
:10012000FCCF8091BB000F9108958091B900887F2A
:1001300008950F930091BC000F770093BC000F91BE
:1001400008950F9306B1006308B90F9108950F93B6
:100150000091B9000C7F0093B9000F9108950F939F
:100160000091BC0001600093BC000F9108950F93B3
:100170000091BC000E7F0093BC000F9108950F9377
:100180000091BC000F7B0093BC000F91089583BFCA
:1001900008950F931F9314E0082F02950F700BD052
:1001A000902F082F0F7007D0802F8F93892F9F914A
:1001B0001F910F9108951F9310E3003059F111E33F
:1001C000013041F112E3023029F113E3033011F160
:1001D00014E30430F9F015E30530E1F016E30630DE
:1001E000C9F017E30730B1F018E3083099F019E3CC
:1001F000093081F011E40A3069F012E40B3051F05B
:1002000013E40C3039F014E40D3021F015E40E3015
:1002100009F016E4012F1F9108950F931AD01ED0F4
:1002200008EF0093C10006E00093C2000F9108950B
:100230000F930091C1000F710093C1000F910895B9
:100240000F930091C00005FFFCCF8093C6000F9173
:1002500008950AB102600E7F0AB908951F9300E065
:1002600017E60093C5001093C4001F9108950F93E3
:100270000091C00000620093C0000F9108950F9399
:100280000091C100803011F0046001C0077F00932D
:10029000C1000F9108950F930091C100803011F0BB
:1002A000056001C00F7E0093C1000F9108950F9368
:1002B0001F938F939F93AF93BF938F939F93AF930E
:1002C000BF9314E08F9165DF082F892FB9DF802F4E
:1002D000B7DF1A951030B1F78AE0B2DFBF91AF9166
:1002E0009F918F911F910F9108950F931F938F935B
:1002F0009F938F939F9312E08F914BDF082F892F4D
:100300009FDF802F9DDF1A951030B1F78AE098DFCC
:100310009F918F911F910F9108950F930091C100AC
:1003200006FD08D00F9108950F930FB707FD02D077
:100330000F9108950F931F9303B110E2012705B9A0
:100340001F910F9108950F9303B1006205B90F91AA
:1003500008950F9303B10F7D05B90F9108950F9381
:1003600000E204B90F9108950F931F9311271F9175
:100370000F9108952F9222248C2F9D2F8E1B9F0B5F
:1003800082092F9008952F922224AA27BB278C2F11
:100390009D2F8E0F9F1FA21D2F9008952F92222414
:1003A000DF9FD001CE9FC001DE9F900DA11DB21D29
:1003B000CF9F900DA11DB21D2F900895990F880F0A
:1003C00008F4916008958695969508F480680895DC
:1003D0008F9384E463DE88E491DE7BD08F9108956F
:1003E000AF93BF93ADB7BEB78F9368DE9EDE883004
:1003F00021F0803111F07CD015C08EEE82DE95DECA
:10040000883111F075D00EC084EF7BDE8EDE88322D
:1004100011F06ED007C08C9174DE87DE883211F047
:1004200067D000C057DEADBFBEBFBF91AF9108958A
:10043000AF93BF93ADB7BEB77F939F938F9315973D
:10044000ADBFBEBF15963ADE70DE883011F050D0D9
:1004500034C08EEE56DE69DE883111F049D02DC0F1
:100460008C914FDE62DE883211F042D026C026DE4B
:100470005CDE803111F03CD020C08FEE42DE55DED4
:10048000803411F035D019C011978C91119639DE56
:1004900042DE13978C93139648DE803509F028D0FE
:1004A0006EDE12978C9112962CDE35DE14978C93AB
:1004B00014963BDE883509F01BD00CDE7C91139737
:1004C0009C9111978C911496ADBFBEBFBF91AF9117
:1004D0000895AF93BF93CF93DF93A1E0A093020160
:1004E000A395A0930301DF91CF91BF91AF910895A0
:1004F0000F9300910201013009F402D00F91089589
:10050000BCDD889508950F931F932F933F93AF936E
:10051000BF93CF93DF93ADB7BEB79F938F935097A1
:10052000ADBFBEBF5096D1E0C4E1CF93DF93EF9350
:10053000FF932A96F8812196E8812B97DC911197F9
:10054000CC91119617DF192F082FFF91EF91DF91B2
:10055000CF91CF93DF93EF93FF93F12FE02F289666
:100560001881219608812997D12FC02FAF93BF936F
:1005700015DF3B2F2A2F192F082FBF91AF91FF9125
:10058000EF91DF91CF91012F0170122F110F012BED
:10059000122F111F111F1170232F220F122B232F27
:1005A000221F221F2170332712973C9311972C93FF
:1005B00011971C9311970C9315968F93832F66D0E8
:1005C000822F64D0812F62D0802F60D08F91ADBFF9
:1005D000BEBFDF91CF91BF91AF913F912F911F91FE
:1005E0000F9108958F9352DDBB27AA278F911895FD
:1005F0000FEF0DBF08E00EBFB2DE81E0C8DD0DDEFB
:1006000017DEE6DE78941BD02FDD889502D0FCCF74
:1006100008958F939F938EE2E3DE41D076EF96EFBD
:1006200087EF06DF8F93892F31D08F912FD08F9353
:1006300080E02CD08F9167DF9F918F9108950F9369
:100640008F939F93AF93CF93DF93AAEAC4E1D1E056
:100650000BE07A2F9A2FA3958A2FA395E9DE8F3F7F
:1006600019F49F3F09F444DF803019F4903009F405
:100670003FDF98832196888321960A9551F7DF9171
:10068000CF91AF919F918F910F9108958F939F93E9
:1006900080DDD6DD892FD4DD9F918F9108952F9332
:1006A0003F934F932EEF3EEF4EEF4A95F1F73A9579
:1006B000E1F72A95D1F74F913F912F910895189521
:1006C000000000000000000000000000000000002A
:1006D000000000000000000000000000000000001A
:1006E000000000000000000000000000000000000A
:1006F00000000000000000000000000000000000FA
:1007000000000000000000000000000000000000E9
:1007100000000000000000000000000000000000D9
:1007200000000000000000000000000000000000C9
:1007300000000000000000000000000000000000B9
:1007400000000000000000000000000000000000A9
:100750000000000000000000000000000000000099
:100760000000000008101828F80020300810405041
:10077000F8004858000000000000000000000000E1
:0A078000000000000000000000006F
:00000001FF
