:100000000C9440020C9483020C9483020C9483029F
:100010000C9483020C9483020C9483020C9483024C
:100020000C9483020C9483020C9483020C9483023C
:100030000C9483020C9483020C9483020C9483022C
:100040000C9483020C9483020C9483020C9483021C
:100050000C9483020C9483020C9483020C9483020C
:100060000C9483020C9483020F9308E500936000C4
:1000700007E4009360000F9108950F9308E5009343
:10008000600008E0009360000F9108950F930091C5
:1000900060000F7B009360000F9108950F93009113
:1000A000BB000F3F19F00FEF0093BB0004E4009377
:1000B000BC0052D04BD00F9108950F9355D00091B2
:1000C000BC0000620093BC000091BC0007FFFCCFA5
:1000D0000F9108950F930091BC0000610093BC0044
:1000E0002DD00F9108950F930091BC000F7D0093C8
:1000F000BC000F9108950F930091BC000F7E0093F8
:10010000BC000F9108958093B80008950F938093D9
:10011000BB00E9DF0091BC0007FFFCCF0F91089501
:100120000F930CD00091BC0007FFFCCF8091BB0067
:100130000F9108958091B900887F08950F930091E1
:10014000BC000F770093BC000F9108950F9306B188
:10015000006308B90F9108950F930091B9000C7FC7
:100160000093B9000F9108950F930091BC000160B6
:100170000093BC000F9108950F930091BC000E7F77
:100180000093BC000F91089583BF08950F931F93B0
:1001900014E0082F02950F700BD0902F082F0F70CE
:1001A00007D0802F8F93892F9F911F910F910895D2
:1001B0001F9310E3003059F111E3013041F112E3D4
:1001C000023029F113E3033011F114E30430F9F0A4
:1001D00015E30530E1F016E30630C9F017E3073008
:1001E000B1F018E3083099F019E3093081F011E417
:1001F0000A3069F012E40B3051F013E40C3039F09E
:1002000014E40D3021F015E40E3009F016E4012F4E
:100210001F9108950F931AD01ED008EF0093C100CC
:1002200006E00093C2000F9108950F930091C10062
:100230000F710093C1000F9108950F930091C000BA
:1002400005FFFCCF8093C6000F9108950AB10260AC
:100250000E7F0AB908951F9300E017E60093C500CA
:100260001093C4001F9108950F930091C000006285
:100270000093C0000F9108950F930091C10080304A
:1002800011F0046001C0077F0093C1000F91089531
:100290000F930091C100803011F0056001C00F7E06
:1002A0000093C1000F9108950F931F938F939F9315
:1002B000AF93BF938F939F93AF93BF9314E08F91AE
:1002C00065DF082F892FB9DF802FB7DF1A9510302F
:1002D000B1F78AE0B2DFBF91AF919F918F911F91EB
:1002E0000F9108950F931F938F939F938F939F93D5
:1002F00012E08F914BDF082F892F9FDF802F9DDF2A
:100300001A951030B1F78AE098DF9F918F911F9175
:100310000F9108950F930091C10006FD08D00F9131
:1003200008950F930FB707FD02D00F9108950F9313
:100330001F9303B110E2012705B91F910F91089592
:100340000F9303B1006205B90F9108950F9303B1A4
:100350000F7D05B90F9108950F9300E204B90F9135
:1003600008958F939BDE88E4CEDE60D08F91089550
:10037000AF93BF93ADB7BEB78F939F938F939F9368
:100380009CDED8DE883021F0803111F063D043C08C
:100390008EEEBCDECFDE883111F05CD03CC0119710
:1003A0008C91B4DE1196C6DE883211F053D033C082
:1003B0008C91ACDEBFDE883211F04CD02CC08ADECE
:1003C0006DDE7BDEB7DE883021F0803111F042D067
:1003D00022C08FEE9BDEAEDE803411F03BD01BC01E
:1003E00011978C9193DE11969BDE13978C93139645
:1003F000A1DE803511F02ED00EC08C9187DE90DE0C
:1004000012978C93129696DE8F9364DE8F9173DE33
:10041000803509F01FD012978C91129613979C91FA
:100420001396ADBFBEBFBF91AF910895AF93BF9379
:10043000CF93DF93A1E0A0930001A395A0930101C6
:10044000DF91CF91BF91AF9108950F931F931F91AB
:100450000F9108950F9300910001013009F402D02B
:100460000F9108950ADE88950895CC931196DC9338
:10047000089508958F930ADEBB27AA278F911895B8
:100480000FEF0DBF08E00EBF67DF81E07DDEC2DE4B
:10049000CCDE67DF789403D08895FECF08950F9364
:1004A0008F939F93AF93CF93DF93AAEAC9E8D0E0ED
:1004B0000BE08F931FD0892F1DD08F919A2FA3957A
:1004C0008A2FA39555DF8F3F19F49F3F09F4C2DFB0
:1004D000803019F4903009F4BDDF98832196888329
:1004E00021960A9531F7DF91CF91AF919F918F912E
:1004F0000F9108958F939F9349DE9FDE892F9DDE94
:080500009F918F910895189559
:1005080000000000000000000000000000000000E3
:1005180000000000000000000000000000000000D3
:1005280000000000000000000000000000000000C3
:1005380000000000000000000000000000000000B3
:1005480000000000000000000000000000000000A3
:100558000000000000000000000000000000000093
:100568000000000000000000000000000000000083
:100578000000000000000000000000000000000073
:100588000000000000000000000000000000000063
:100598000000000000000000000000000000000053
:1005A800000009101828F800203008104050F80002
:1005B8004858000000000000000000000000000093
:0805C80000000000000000002B
:00000001FF
