:100000000C94AB020C9403030C9403030C940303B1
:100010000C9403030C9403030C94A5020C940303A7
:100020000C9403030C9403030C9403030C94030338
:100030000C9403030C9403030C9403030C94030328
:100040000C9403030C9403030C9403030C94030318
:100050000C9403030C9403030C9403030C94030308
:100060000C9403030C9403030F9308E500936000C2
:1000700007E4009360000F9108950F9308E5009343
:10008000600008E0009360000F9108950F930091C5
:1000900060000F7B009360000F9108950F93009113
:1000A000BB000F3F19F00FEF0093BB0080930001DE
:1000B0008093BC004CD045D00F9108950F930091D0
:1000C0000001046A0093BC000091BC0007FFFCCF54
:1000D0000F9108950F930091BC0000610093BC0044
:1000E0000091BC0004FDFCCF0F9108950F93009187
:1000F000BC000F7D0093BC000F9108958093B80061
:1001000008950F938093BB00F1DF0091BC0007FFBF
:10011000FCCF0F9108950F930CD00091BC0007FF06
:10012000FCCF8091BB000F9108958091B900887F2A
:1001300008950F930091BC000F770093BC000F91BE
:1001400008950F9306B1006308B90F9108950F93B6
:100150000091B9000C7F0093B9000F9108950F939F
:100160000091BC0001600093BC000F9108950F93B3
:100170000091BC000E7F0093BC000F9108950F9377
:100180000091BC000F7B0093BC000F91089583BFCA
:1001900008950F931F9314E0082F02950F700BD052
:1001A000902F082F0F7007D0802F8F93892F9F914A
:1001B0001F910F9108951F9310E3003059F111E33F
:1001C000013041F112E3023029F113E3033011F160
:1001D00014E30430F9F015E30530E1F016E30630DE
:1001E000C9F017E30730B1F018E3083099F019E3CC
:1001F000093081F011E40A3069F012E40B3051F05B
:1002000013E40C3039F014E40D3021F015E40E3015
:1002100009F016E4012F1F9108950F931AD01ED0F4
:1002200008EF0093C10006E00093C2000F9108950B
:100230000F930091C1000F710093C1000F910895B9
:100240000F930091C00005FFFCCF8093C6000F9173
:1002500008950AB102600E7F0AB908951F9300E065
:1002600017E60093C5001093C4001F9108950F93E3
:100270000091C00000620093C0000F9108950F9399
:100280000091C100803011F0046001C0077F00932D
:10029000C1000F9108950F930091C100803011F0BB
:1002A000056001C00F7E0093C1000F9108950F9368
:1002B0001F938F939F93AF93BF938F939F93AF930E
:1002C000BF9314E08F9165DF082F892FB9DF802F4E
:1002D000B7DF1A951030B1F78AE0B2DFBF91AF9166
:1002E0009F918F911F910F9108950F931F938F935B
:1002F0009F938F939F9312E08F914BDF082F892F4D
:100300009FDF802F9DDF1A951030B1F78AE098DFCC
:100310009F918F911F910F9108950F930091C100AC
:1003200006FD08D00F9108950F930FB707FD02D077
:100330000F9108950F931F9303B110E2012705B9A0
:100340001F910F9108950F9303B1006205B90F91AA
:1003500008950F9303B10F7D05B90F9108950F9381
:1003600000E204B90F9108958F9384E497DE88E446
:10037000C5DEC7D08F910895AF93BF93ADB7BEB719
:100380008F939CDED2DE883021F0803111F0CDD009
:1003900017C08EEEB6DEC9DE883111F0C6D010C0AF
:1003A00084EFAFDEC2DE883211F0BFD009C01197F2
:1003B0008C911196A6DEB9DE883211F0B6D000C05D
:1003C00089DEADBFBEBFBF91AF910895AF93BF931C
:1003D000ADB7BEB78F931297ADBFBEBF12966EDE9C
:1003E000A4DE883021F0803111F09FD02CC08EEE39
:1003F00088DE9BDE883111F098D025C05FDE95DE67
:10040000883021F0803111F090D01DC08FEE79DE60
:100410008CDE803411F089D016C086EF72DE85DE66
:100420007ADE12978C93129680DE803511F07DD0A3
:100430000AC087EF66DE6FDE11978C93119675DE2A
:10044000803509F072D046DE11978C911196129783
:100450009C911296ADBFBEBFBF91AF910895AF936F
:10046000BF93ADB7BEB78F931397ADBFBEBF139603
:1004700025DE5BDE883021F0803111F056D032C0AD
:100480008EEE3FDE52DE883111F04FD02BC08C91C2
:1004900038DE4BDE883211F048D024C00FDE45DE56
:1004A000883021F0803111F040D01CC08FEE29DE61
:1004B0003CDE803411F039D015C08C9122DE2BDE69
:1004C00011978C93119631DE803509F02ED057DECE
:1004D0008C9117DE20DE12978C93129626DE8835DB
:1004E00009F023D08F938C9175D08F91F3DD119704
:1004F0009C9111978C911296ADBFBEBFBF91AF91E9
:100500000895AF93BF93CF93DF93A1E0A09302012F
:10051000A395A0930301DF91CF91BF91AF9108956F
:100520000F931F931F910F9108950F930091020154
:10053000013009F402D00F9108959FDD8895089548
:10054000CC931196DC93089508958F939FDDBB277C
:10055000AA278F9118950FEF0DBF08E00EBFFFDEA1
:1005600081E015DE5ADE64DEFFDE78940CD08895DB
:10057000FECF08958F939F938EE2FEDE34D026DF68
:100580009F918F9108950F938F939F93AF93BF93F4
:10059000CF93DF93AAEAB2E0CAE8D0E00BE08A2F5B
:1005A000AB0F5DDF8F3F19F49F3F09F4BEDF803052
:1005B00019F4903009F4B9DF988321968883219645
:1005C0000A9569F7DF91CF91BF91AF919F918F917C
:1005D0000F9108958F939F93DCDD32DE892F30DEFB
:1005E0009F918F9108952F933F934F932EEF3EEF5E
:1005F0004EEF4A95F1F73A95E1F72A95D1F74F91E9
:080600003F912F910895189518
:1006080000000000000000000000000000000000E2
:1006180000000000000000000000000000000000D2
:1006280000000000000000000000000000000000C2
:1006380000000000000000000000000000000000B2
:1006480000000000000000000000000000000000A2
:100658000000000000000000000000000000000092
:100668000000000000000000000000000000000082
:100678000000000000000000000000000000000072
:100688000000000000000000000000000000000062
:100698000000000000000000000000000000000052
:1006A8000000000008101828F800203008104050FA
:1006B800F80048580000000000000000000000009A
:0A06C8000000000000000000000028
:00000001FF
