:100000000C94A3020C94FB020C94FB020C94FB02D4
:100010000C94FB020C94FB020C949D020C94FB02CA
:100020000C94FB020C94FB020C94FB020C94FB025C
:100030000C94FB020C94FB020C94FB020C94FB024C
:100040000C94FB020C94FB020C94FB020C94FB023C
:100050000C94FB020C94FB020C94FB020C94FB022C
:100060000C94FB020C94FB020F9308E500936000D4
:1000700007E4009360000F9108950F9308E5009343
:10008000600008E0009360000F9108950F930091C5
:1000900060000F7B009360000F9108950F93009113
:1000A000BB000F3F19F00FEF0093BB0080930001DE
:1000B0008093BC004DD046D00F9108950F930091CE
:1000C000000100620093BC0035D00091BC0007FF26
:1000D000FCCF0F9108950F930091BC000061009335
:1000E000BC000091BC0004FDFCCF0F9108950F935C
:1000F0000091BC000F7D0093BC000F910895809388
:10010000B80008950F938093BB00F1DF0091BC000D
:1001100007FFFCCF0F9108950F930CD00091BC0006
:1001200007FFFCCF8091BB000F9108958091B9002B
:10013000887F08950F930091BC000F770093BC0057
:100140000F9108950F9306B1006308B90F910895B8
:100150000F930091B9000C7F0093B9000F9108959F
:100160000F930091BC0001600093BC000F910895B3
:100170000F930091BC000E7F0093BC000F91089577
:1001800083BF08950F931F9314E0082F02950F70FB
:100190000BD0902F082F0F7007D0802F8F93892FAF
:1001A0009F911F910F9108951F9310E3003059F113
:1001B00011E3013041F112E3023029F113E303307E
:1001C00011F114E30430F9F015E30530E1F016E322
:1001D0000630C9F017E30730B1F018E3083099F0A2
:1001E00019E3093081F011E40A3069F012E40B30B0
:1001F00051F013E40C3039F014E40D3021F015E423
:100200000E3009F016E4012F1F9108950F931AD0B4
:100210001ED008EF0093C10006E00093C2000F91CA
:1002200008950F930091C1000F710093C1000F91C9
:1002300008950F930091C00005FFFCCF8093C60086
:100240000F9108950AB102600E7F0AB908951F93B5
:1002500000E017E60093C5001093C4001F910895B5
:100260000F930091C00000620093C0000F910895A9
:100270000F930091C100803011F0046001C0077F2E
:100280000093C1000F9108950F930091C100803039
:1002900011F0056001C00F7E0093C1000F91089519
:1002A0000F931F938F939F93AF93BF938F939F93BE
:1002B000AF93BF9314E08F9165DF082F892FB9DFCB
:1002C000802FB7DF1A951030B1F78AE0B2DFBF9107
:1002D000AF919F918F911F910F9108950F931F934D
:1002E0008F939F938F939F9312E08F914BDF082FF3
:1002F000892F9FDF802F9DDF1A951030B1F78AE09C
:1003000098DF9F918F911F910F9108950F93009106
:10031000C10006FD08D00F9108950F930FB707FD98
:1003200002D00F9108950F931F9303B110E201279C
:1003300005B91F910F9108950F9303B1006205B99C
:100340000F9108950F9303B10F7D05B90F91089593
:100350000F9300E204B90F9108958F9384E49EDE19
:1003600088E4CDDEC6D08F910895AF93BF93ADB72B
:10037000BEB78F93A3DEDADE883021F0803111F032
:10038000CCD017C08EEEBEDED1DE883111F0C5D0E4
:1003900010C084EFB7DECADE883211F0BED009C0CB
:1003A00011978C911196AEDEC1DE883211F0B5D076
:1003B00000C091DEADBFBEBFBF91AF910895AF93B6
:1003C000BF93ADB7BEB78F931297ADBFBEBF1296A6
:1003D00075DEACDE883021F0803111F09ED02CC06B
:1003E0008EEE90DEA3DE883111F097D025C066DE58
:1003F0009DDE883021F0803111F08FD01DC08FEE4E
:1004000081DE94DE803411F088D016C086EF7ADE6B
:100410008DDE82DE12978C93129688DE803511F085
:100420007CD00AC087EF6EDE77DE11978C93119631
:100430007DDE803509F071D04EDE11978C911196DA
:1004400012979C911296ADBFBEBFBF91AF91089518
:10045000AF93BF93ADB7BEB78F931397ADBFBEBF7A
:1004600013962CDE63DE883021F0803111F055D0F8
:1004700032C08EEE47DE5ADE883111F04ED02BC0EE
:100480008C9140DE53DE883211F047D024C023DE49
:1004900015DE4CDE883021F0803111F03ED01BC0DB
:1004A0008FEE30DE43DE803411F037D014C08C91F3
:1004B00029DE32DE11978C93119638DE803509F0F3
:1004C0002CD08C911FDE28DE12978C9312962EDE94
:1004D000803509F022D0FFDD8F9374D08F91119772
:1004E0009C9111978C911296ADBFBEBFBF91AF91F9
:1004F0000895AF93BF93CF93DF93A1E0A093020140
:10050000A395A0930301DF91CF91BF91AF9108957F
:100510000F931F931F910F9108950F930091020164
:10052000013009F402D00F910895A7DD8895089550
:10053000CC931196DC93089508958F93A7DDBB2784
:10054000AA278F9118950FEF0DBF08E00EBF00DFAF
:1005500081E016DE5BDE65DE00DF78940CD08895E6
:10056000FECF08958F939F938EE2FFDE34D027DF76
:100570009F918F9108950F938F939F93AF93BF9304
:10058000CF93DF93AAEAB2E0CAE8D0E00BE08A2F6B
:10059000AB0F5EDF8F3F19F49F3F09F4BEDF803061
:1005A00019F4903009F4B9DF988321968883219655
:1005B0000A9569F7DF91CF91BF91AF919F918F918C
:1005C0000F9108958F939F93DDDD33DE892F31DE08
:1005D0009F918F9108952F933F934F932EEF3EEF6E
:1005E0004EEF4A95F1F73A95E1F72A95D1F74F91F9
:0805F0003F912F910895189529
:1005F80000000000000000000000000000000000F3
:1006080000000000000000000000000000000000E2
:1006180000000000000000000000000000000000D2
:1006280000000000000000000000000000000000C2
:1006380000000000000000000000000000000000B2
:1006480000000000000000000000000000000000A2
:100658000000000000000000000000000000000092
:100668000000000000000000000000000000000082
:100678000000000000000000000000000000000072
:100688000000000000000000000000000000000062
:100698000000000008101828F8002030081040500A
:1006A800F8004858000000000000000000000000AA
:0A06B8000000000000000000000038
:00000001FF
