:100000000C9434000C945D000C945D000C945D0025
:100010000C945D000C945D000C9464020C945D00E3
:100020000C945D000C945D000C945D000C945D00DC
:100030000C945D000C945D000C945D000C945D00CC
:100040000C945D000C945D000C945D000C945D00BC
:100050000C945D000C945D000C945D000C945D00AC
:100060000C945D000C945D000E94D30181E00E941D
:10007000DD000E9425010E9432010E94F201789465
:100080008BEA9AEA0E94FC018895FECF08958F932F
:100090009F930E94DF000E943A01892F0E943A013B
:1000A0009F918F91089529E236E940E84A95F1F74A
:1000B0003A95E1F72A95D1F7089518950F93009195
:1000C000BB000F3F19F00FEF0093BB0004E4009357
:1000D000BC000E94C5000E94BF000F9108950F93BD
:1000E0000E94CD000091BC0000620093BC00009112
:1000F000BC0007FFFCCF0F9108950F930091BC0047
:1001000000610093BC000E94B7000F9108950F9307
:100110000091BC000F7D0093BC000F910895809367
:10012000B80008950F938093BB000E948700009150
:10013000BC0007FFFCCF0F9108950F938093BB0085
:100140000E94B7000091BC0007FFFCCF0F910895FB
:100150000F930E94B7000091BC0007FFFCCF809175
:10016000BB000F9108958091B900887F08950F9387
:100170000091BC000F770093BC000F9108950F937E
:1001800006B1006308B90F9108950F930091B9006B
:100190000C7F0093B9000F9108950F930091BC005C
:1001A00001600093BC000F9108950F930091BC0073
:1001B0000E7F0093BC000F91089583BF08950F93A5
:1001C0001F9314E0082F02950F700E94F300902FE8
:1001D000082F0F700E94F300802F8F93892F9F911B
:1001E0001F910F9108951F9310E3003059F111E30F
:1001F000013041F112E3023029F113E3033011F130
:1002000014E30430F9F015E30530E1F016E30630AD
:10021000C9F017E30730B1F018E3083099F019E39B
:10022000093081F011E40A3069F012E40B3051F02A
:1002300013E40C3039F014E40D3021F015E40E30E5
:1002400009F016E4012F1F9108950F930E944301B6
:100250000E94480108EF0093C10006E00093C2002D
:100260000F9108950F930091C1000F710093C10089
:100270000F9108950F930091C00005FFFCCF80936C
:10028000C6000F9108950AB102600E7F0AB9089561
:100290001F9300E017E60093C5001093C4001F9160
:1002A00008950F930091C00000620093C0000F9169
:1002B00008950F930091C100803011F0046001C0D7
:1002C000077F0093C1000F9108950F930091C10023
:1002D000803011F0056001C00F7E0093C1000F91C6
:1002E00008950F931F938F939F93AF93BF938F9313
:1002F0009F93AF93BF9314E08F910E94DF00082F6C
:10030000892F0E943A01802F0E943A011A951030DD
:1003100099F78AE00E943A01BF91AF919F918F9126
:100320001F910F9108950F931F938F939F938F9316
:100330009F9312E08F910E94DF00082F892F0E9467
:100340003A01802F0E943A011A95103099F78AE0FD
:100350000E943A019F918F911F910F9108950F93E1
:100360000091C10006FD0E94BE010F9108950F93F8
:100370000FB707FD0E94BE010F9108950F931F93C1
:1003800003B110E2012705B91F910F9108950F9352
:1003900003B1006205B90F9108950F9303B10F7D6A
:1003A00005B90F9108950F9300E204B90F910895D4
:1003B0000F9308E50093600007E4009360000F913D
:1003C00008950F9308E50093600008E00093600033
:1003D0000F9108950F93009160000F7B00936000D0
:1003E0000F9108958F930E945E0088E40E948F0011
:1003F0000E942C028F910895AF93BF93ADB7BEB703
:100400008F939F930E946F000E94B300883029F061
:10041000803119F00E9452021AC08EEE0E949200A2
:100420008AEA0E9492000E947D000E945E000E9463
:100430006F008FEE0E9492008AEA0E9492000E9452
:10044000A8000F93082F0E944700802F0F919F91C3
:100450008F91BF91AF910895AF93BF93CF93DF93E7
:10046000A0E0A0936200A395A0936300A0E6B0E093
:10047000C5E6D0E00E945F02DF91CF91BF91AF91BE
:1004800008950F931F930091640010916200113042
:1004900021F0123011F0133009F001C000C01F919B
:1004A0000F9108950F9300916300013011F40E94A1
:1004B0005B020F9108950E94E10188950895CC9305
:1004C0001196DC93089508958F930E94EA01BB274B
:0E04D000AA2780916300809362008F91189597
:1004DE00000000000008101828F800203008104016
:1004EE0050F8004858000000000000000000000016
:0C04FE00000000000000000000000000F2
:00000001FF
