:100000000C9446000C9469000C9469000C946900EF
:100010000C9469000C9469000C945A020C946900C9
:100020000C9469000C9469000C9469000C946900AC
:100030000C9469000C9469000C9469000C9469009C
:100040000C9469000C9469000C9469000C9469008C
:100050000C9469000C9469000C9469000C9469007C
:100060000C944B020C9469000F9304E40093BC00C1
:100070000E9499000E9493000F9108950F930E948F
:10008000A1000091BC0000620093BC000F91089594
:100090000F930091BC0000610E948B000091BC0096
:1000A00007FFFCCF0F9108950F930091BC000F7DC7
:1000B0000093BC000F9108958093B80008950F93AA
:1000C000082F0C6F0093B9000F9108958093BA0028
:1000D00008950F93082F0E7F803009F00160802F64
:1000E0000F9108950F938093BB000E9454000091DC
:1000F000BC0007FFFCCF0F9108950F938093BB00C6
:100100000E948B000F9108958091BB00089580910B
:10011000B900887F08950F930091BC000F7700937A
:10012000BC000F9108950F9306B1006308B90F91B9
:1001300008950F930091B9000C7F0093B9000F91BF
:1001400008950F930091BC0001600093BC000F91D3
:1001500008950F930091BC000E7F0093BC000F9197
:10016000089583BF08950F931F9314E0082F0295FD
:100170000F700E94C700902F082F0F700E94C700B9
:10018000802F8F93892F9F911F910F9108951F9317
:1001900010E3003059F111E3013041F112E3023074
:1001A00029F113E3033011F114E30430F9F015E3FE
:1001B0000530E1F016E30630C9F017E30730B1F07F
:1001C00018E3083099F019E3093081F011E40A309E
:1001D00069F012E40B3051F013E40C3039F014E400
:1001E0000D3021F015E40E3009F016E4012F1F91B7
:1001F00008950F930E9417010E941C0108EF0093BD
:10020000C10006E00093C2000F9108950F93009182
:10021000C1000F710093C1000F9108950F930091D9
:10022000C00005FFFCCF8093C6000F9108950AB16E
:1002300002600E7F0AB908951F9300E017E600934D
:10024000C5001093C4001F9108950F930091C00042
:1002500000680093C0000F9108958091C6000E942D
:10026000320108950F930091C00000620093C00016
:100270000F9108950F930091C100803011F0046038
:1002800001C0077F0093C1000F9108950F93009163
:10029000C100803011F0056001C00F7E0093C100E5
:1002A0000F9108950F931F938F939F93AF93BF93D5
:1002B0008F939F93AF93BF9314E08F910E94B300ED
:1002C000082F892F0E940E01802F0E940E011A957F
:1002D000103099F78AE00E940E01BF91AF919F9173
:1002E0008F911F910F9108950F931F938F939F9359
:1002F0008F939F9312E08F910E94B300082F892F54
:100300000E940E01802F0E940E011A95103099F75D
:100310008AE00E940E019F918F911F910F91089585
:100320000F930091C10006FD0E949F010F91089557
:100330000F930FB707FD0E949F010F9108950F9330
:100340001F9303B110E2012705B91F910F91089582
:100350000F9303B1006205B90F9108950F9303B194
:100360000F7D05B90F9108950F9300E204B90F9125
:1003700008950F9308E50093600007E40093600080
:100380000F9108950F9308E50093600008E0009333
:1003900060000F9108950F93009160000F7B009310
:1003A00060000F9108958F930E94340088E40E94AA
:1003B0005C000E9413028F910895EF93FF93EDB7B5
:1003C000FEB78F939F930F930E943E000E94870079
:1003D000883029F0803119F00E9439021EC08FEE5A
:1003E0000E9472000E948700803419F00E94390236
:1003F00014C0CF010C91802F0E947D00CF01019687
:100400000C91802F0E947D000E948700803519F09A
:100410000E94390202C00E9448000F919F918F9163
:10042000FF91EF910895AF93BF93CF93DF93A0E037
:10043000A0936200A395A0936300A0E6B0E0C5E698
:10044000D0E00E944602DF91CF91BF91AF91089515
:100450000F931F930091640010916200113021F0FE
:10046000123011F0133009F001C000C01F910F913C
:1004700008950F9300916300013011F40E9442022D
:100480000F9108950E94C20188950895CC9311960A
:10049000DC93089508950F930E9487008093640071
:1004A0000F93082F0E945D000F91802F0E94A900DA
:1004B0000F9118958F930E94CB01BB27AA2780919B
:0A04C0006300809362008F9118958D
:1004CA00000000000008101828F80020300810402A
:1004DA0050F800485800000000000000000000002A
:1004EA000000000000000000000000000E94B401AB
:1004FA0081E00E94B1000E94F9000E9406010E9458
:10050A00D30178940E94DD0100913F0007FF78949F
:10051A0088950E941302F8CF08958F939F930E94A3
:10052A00B3000E940E01892F0E940E019F918F91A4
:04053A000895189573
:00000001FF
