:100000000C94B4050C9412060C9412060C9412066F
:100010000C9412060C9412060C94AE050C94120665
:100020000C9412060C9412060C9412060C941206F0
:100030000C9412060C9412060C9412060C941206E0
:100040000C9412060C9412060C9412060C941206D0
:100050000C9412060C9412060C9412060C941206C0
:100060000C9412060C9412060F9308E5009360009E
:1000700007E4009360000F9108950F9308E5009343
:10008000600008E0009360000F9108950F930091C5
:1000900060000F7B009360000F9108950F93009113
:1000A000BB000F3F19F00FEF0093BB0080930001DE
:1000B0008093BC004CD045D00F9108950F930091D0
:1000C0000001046A0093BC000091BC0007FFFCCF54
:1000D0000F9108950F930091BC0000610093BC0044
:1000E0000091BC0004FDFCCF0F9108950F93009187
:1000F000BC000F7D0093BC000F9108958093B80061
:1001000008950F938093BB00F1DF0091BC0007FFBF
:10011000FCCF0F9108950F930CD00091BC0007FF06
:10012000FCCF8091BB000F9108958091B900887F2A
:1001300008950F930091BC000F770093BC000F91BE
:1001400008950F9306B1006308B90F9108950F93B6
:100150000091B9000C7F0093B9000F9108950F939F
:100160000091BC0001600093BC000F9108950F93B3
:100170000091BC000E7F0093BC000F9108950F9377
:100180000091BC000F7B0093BC000F91089583BFCA
:1001900008950F931F9314E0082F02950F700BD052
:1001A000902F082F0F7007D0802F8F93892F9F914A
:1001B0001F910F9108951F9310E3003059F111E33F
:1001C000013041F112E3023029F113E3033011F160
:1001D00014E30430F9F015E30530E1F016E30630DE
:1001E000C9F017E30730B1F018E3083099F019E3CC
:1001F000093081F011E40A3069F012E40B3051F05B
:1002000013E40C3039F014E40D3021F015E40E3015
:1002100009F016E4012F1F9108950F931AD01ED0F4
:1002200008EF0093C10006E00093C2000F9108950B
:100230000F930091C1000F710093C1000F910895B9
:100240000F930091C00005FFFCCF8093C6000F9173
:1002500008950AB102600E7F0AB908951F9300E065
:1002600017E60093C5001093C4001F9108950F93E3
:100270000091C00000620093C0000F9108950F9399
:100280000091C100803011F0046001C0077F00932D
:10029000C1000F9108950F930091C100803011F0BB
:1002A000056001C00F7E0093C1000F9108950F9368
:1002B0001F938F939F93AF93BF938F939F93AF930E
:1002C000BF9314E08F9165DF082F892FB9DF802F4E
:1002D000B7DF1A951030B1F78AE0B2DFBF91AF9166
:1002E0009F918F911F910F9108950F931F938F935B
:1002F0009F938F939F9312E08F914BDF082F892F4D
:100300009FDF802F9DDF1A951030B1F78AE098DFCC
:100310009F918F911F910F9108950F930091C100AC
:1003200006FD08D00F9108950F930FB707FD02D077
:100330000F9108950F931F9303B110E2012705B9A0
:100340001F910F9108950F9303B1006205B90F91AA
:1003500008950F9303B10F7D05B90F9108950F9381
:1003600000E204B90F9108950F931F932F933F93C9
:100370004F938C2F23D0282F8D2F20D0382F8827D4
:100380009C2F321BA2F0232F1D2F110F3A9509F03D
:10039000FCCF0C2F322F33958827880F202F211B5D
:1003A00012F08160022F3A9511F01695F6CF902F3A
:1003B0004F913F912F911F910F9108951F932F936C
:1003C0003F934F93482F8827342F20E818E032239B
:1003D00029F483952695342F1A95C9F74F913F91AB
:1003E0002F911F910895BEB7ADB7DF93CF93FF93C1
:1003F000EF93CC911297DC911296B6DFBEBFADBFE2
:1004000008952F9222248C2F9D2F8E1B9F0B8209E3
:100410002F9008952F922224AA27BB278C2F9D2F3F
:100420008E0F9F1FA21D2F9008952F922224DF9FD1
:10043000D001CE9FC001DE9F900DA11DB21DCF9FA8
:10044000900DA11DB21D2F900895990F880F08F4EB
:10045000916008958695969508F480680895882798
:10046000992777FF02C08FEF9FEF08956A0F7B1FD8
:100470008C1F9D1F08950F93EF93FF93FEB7EDB769
:100480009F938F937F936F93DF93CF93BF93AF939C
:100490007A97FEBFEDBF7A963C9790833197808321
:1004A00031977083319760833F967297908331972D
:1004B000808331977083319760837596882738974A
:1004C00080833197808331978083319780833B96F7
:1004D0007097808331978083719694E0AA27BB2719
:1004E0008894EA1BFB0B80818894EA0FFB1F66DF70
:1004F00070970081080F00837096883019F4A395D7
:100500009A9571F794E0A4E0BB278894EA1BFB0B53
:1005100080818894EA0FFB1F51DF71970081080FDB
:1005200000837196883019F4A3959A9571F77097A6
:100530008081319790817196981B97FD86C0709746
:10054000908370963497D0813197C0813197B08174
:100550003197A08137967097008170968894AA1F72
:10056000BB1FCC1FDD1F0A95C9F77697D083319743
:10057000C0833197B0833197A08379963C97D0831D
:100580003197C0833197B0833197A0833F9670979E
:100590000081709603953897D0813197C08131974B
:1005A000B0813197A0813B968894AA1FBB1FCC1FB6
:1005B000DD1F3897D0833197C0833197B08331974F
:1005C000A0833B967697D0813197C0813197B081D7
:1005D0003197A08179967297908131978081319778
:1005E000708131976081759688946A1B7B0B8C0BA8
:1005F0009D0B9923CAF0729790833197808331972E
:1006000070833197608375960F933B9700810160EB
:1006100000833B960F913C9790833197808331976D
:100620007083319760833F960A9579F08894D795C7
:10063000C795B795A7957697D0833197C0833197A3
:10064000B0833197A0837996A6CF38979081319760
:10065000808131977081319760813B963C97D08142
:100660003197C0813197B0813197A0813F96FEBF0D
:10067000EDBFFF91EF910F9108950F93B7FD0DC05E
:100680000FEFB027A0279027802701E08894800FE4
:1006900000E0901FA01FB01F0CC001E08894801BD9
:1006A00000E0900BA00BB00B0FEFB027A027902716
:1006B00080270F9108958F9384E4F0DC88E41EDD99
:1006C0007BD08F910895AF93BF93ADB7BEB78F9393
:1006D000F5DC2BDD883021F0803111F07CD015C0A5
:1006E0008EEE0FDD22DD883111F075D00EC084EF63
:1006F00008DD1BDD883211F06ED007C08C9101DD62
:1007000014DD883211F067D000C0E4DCADBFBEBF9D
:10071000BF91AF910895AF93BF93ADB7BEB77F932D
:100720009F938F931597ADBFBEBF1596C7DCFDDCB9
:10073000883011F050D034C08EEEE3DCF6DC883126
:1007400011F049D02DC08C91DCDCEFDC883211F047
:1007500042D026C0B3DCE9DC803111F03CD020C0AF
:100760008FEECFDCE2DC803411F035D019C0119768
:100770008C911196C6DCCFDC13978C931396D5DC45
:10078000803509F028D0FBDC12978C911296B9DCE9
:10079000C2DC14978C931496C8DC883509F01BD002
:1007A00099DC7C9113979C9111978C911496ADBF15
:1007B000BEBFBF91AF910895AF93BF93CF93DF9327
:1007C000A1E0A0930201A395A0930301DF91CF9133
:1007D000BF91AF9108950F9300910201013009F488
:1007E00002D00F91089549DC889508950F931F93C7
:1007F0002F933F934F935F936F937F93AF93BF93E9
:10080000CF93DF93ADB7BEB79F938F938F93882716
:10081000F0D1892FEED18F91ECD15097ADBFBEBFF3
:100820005096509700270C935096D1E0C4E1CF9397
:10083000DF93EF93FF932A96F8812196E8812B9717
:100840008F9381E0D6D18F2FD4D18E2FD2D18F919B
:10085000DC911197CC911196D4DD192F082FFF91BF
:10086000EF91DF91CF91CF93DF93EF93FF93F12F30
:10087000E02F289618812196088129978F9382E08E
:10088000B8D1812FB6D1802FB4D18F91D12FC02F65
:10089000AF93BF93CADD3B2F2A2F192F082FBF918B
:1008A000AF91FF91EF91DF91CF91012F0170122F46
:1008B000110F012B122F111F111F1170232F220F47
:1008C000122B232F221F221F2170332712973C93B4
:1008D00011972C9311971C9311970C9315968F9346
:1008E00083E087D1832F85D1822F83D1812F81D13E
:1008F000802F7FD18F91629678812196688163974E
:10090000AEDD392F282F172F062F8F9384E071D15A
:10091000812F6FD1802F6DD18F918BE08894001F34
:10092000111F221F331F8A95C9F78F9385E061D16C
:10093000832F5FD1822F5DD1812F5BD1802F59D141
:100940008F9116973C9311972C9311971C931197A5
:100950000C931996649678812196688165978F9398
:1009600086E047D1872F45D1862F43D18F9177DD00
:1009700097FF15C0AF93BF93CF93DF93B92FA82FE5
:10098000972F862F7ADE682F792F8A2F9B2FDF9162
:10099000CF91BF91AF91509701E00C9350966F9318
:1009A0007F938F939F9312979C9111978C9111979E
:1009B0007C9111976C9115963F912F911F910F91FA
:1009C000AF93BF93CF93DF93D32FC22FB12FA02F1D
:1009D0004DDD8F9388E00DD1892F0BD18F9109D1F7
:1009E0008F93872F06D1862F04D18F91DF91CF91DE
:1009F000BF91AF9197FF06C050970C9111E001276E
:100A00000C93509616973C9111972C9111971C912D
:100A100011970C911996AF93BF93CF93DF936F9378
:100A20007F938F939F938F9389E0E3D0832FE1D0BF
:100A3000822FDFD0812FDDD0802FDBD08F91932FBD
:100A4000822F712F602FDF91CF91BF91AF9113DD76
:100A5000DF91CF91BF91AF9116979C9311978C9393
:100A600011977C9311976C93199650970C9150960F
:100A70000030F1F0AF93BF93CF93DF938A2F9B2F7A
:100A8000AC2FBD2FFADD682F792F8A2F9B2FDF9196
:100A9000CF91BF91AF9116979C9311978C9311971B
:100AA0007C9311976C931996002750970C9350964E
:100AB00012979C9111978C9111977C9111976C9141
:100AC000159616973C9111972C9111971C9111979F
:100AD0000C911996AF93BF93CF93DF93D32FC22F6F
:100AE000B12FA02FC3DCDF91CF91BF91AF911A97A7
:100AF0009C9311978C9311977C9311976C931D96EF
:100B0000AF93BF93CF93DF93DD27CC27BB27A8E01C
:100B1000ADDCDF91CF91BF91AF9104E088949795C0
:100B20008795779567950A95C9F71E977C931197D6
:100B30006C931F961E979C9111978C911F96ADBF39
:100B4000BEBFDF91CF91BF91AF917F916F915F91C8
:100B50004F913F912F911F910F9108958F9396DAA6
:100B6000BB27AA278F9118950FEF0DBF08E00EBF86
:100B7000F6DB81E00CDB51DB5BDB9DDD789412D092
:100B800073DA889502D0FCCF08958F939F938EE2FD
:100B90009ADD38D076EF96EF87EFBDDD27DE9F91A7
:100BA0008F9108950F938F939F93AF93CF93DF937C
:100BB000AAEAC4E1D1E00BE07A2F9A2FA3958A2FFD
:100BC000A395A9DD8F3F19F49F3F09F404DE80301F
:100BD00019F4903009F4FFDD9883219688832196DB
:100BE0000A9551F7DF91CF91AF919F918F910F911E
:100BF00008958F939F93CDDA23DB892F21DB9F917B
:100C00008F9108952F933F934F932EEF3EEF4EEF2A
:100C10004A95F1F73A95E1F72A95D1F74F913F912F
:060C20002F9108951895C4
:100C260000000000000000000000000000000000BE
:100C360000000000000000000000000000000000AE
:100C4600000000000000000000000000000000009E
:100C5600000000000000000000000000000000008E
:100C6600000000000000000000000000000000007E
:100C7600000000000000000000000000000000006E
:100C8600000000000000000000000000000000005E
:100C9600000000000000000000000000000000004E
:100CA600000000000000000000000000000000003E
:100CB600000000000000000000000000000000002E
:100CC6000000000008101828F800203008104050D6
:100CD600F800485800000000000000000000000076
:0A0CE6000000000000000000000004
:00000001FF
