:100000000C9469030C94DB030C94DB030C94DB036A
:100010000C94DB030C94DB030C9463030C94DB0360
:100020000C94DB030C94DB030C94DB030C94DB03D8
:100030000C94DB030C94DB030C94DB030C94DB03C8
:100040000C94DB030C94DB030C94DB030C94DB03B8
:100050000C94DB030C94DB030C94DB030C94DB03A8
:100060000C94DB030C94DB030F9308E50093600012
:1000700007E4009360000F9108950F9308E5009343
:10008000600008E0009360000F9108950F930091C5
:1000900060000F7B009360000F9108950F93009113
:1000A000BB000F3F19F00FEF0093BB0080930001DE
:1000B0008093BC004CD045D00F9108950F930091D0
:1000C0000001046A0093BC000091BC0007FFFCCF54
:1000D0000F9108950F930091BC0000610093BC0044
:1000E0000091BC0004FDFCCF0F9108950F93009187
:1000F000BC000F7D0093BC000F9108958093B80061
:1001000008950F938093BB00F1DF0091BC0007FFBF
:10011000FCCF0F9108950F930CD00091BC0007FF06
:10012000FCCF8091BB000F9108958091B900887F2A
:1001300008950F930091BC000F770093BC000F91BE
:1001400008950F9306B1006308B90F9108950F93B6
:100150000091B9000C7F0093B9000F9108950F939F
:100160000091BC0001600093BC000F9108950F93B3
:100170000091BC000E7F0093BC000F9108950F9377
:100180000091BC000F7B0093BC000F91089583BFCA
:1001900008950F931F9314E0082F02950F700BD052
:1001A000902F082F0F7007D0802F8F93892F9F914A
:1001B0001F910F9108951F9310E3003059F111E33F
:1001C000013041F112E3023029F113E3033011F160
:1001D00014E30430F9F015E30530E1F016E30630DE
:1001E000C9F017E30730B1F018E3083099F019E3CC
:1001F000093081F011E40A3069F012E40B3051F05B
:1002000013E40C3039F014E40D3021F015E40E3015
:1002100009F016E4012F1F9108950F931AD01ED0F4
:1002200008EF0093C10006E00093C2000F9108950B
:100230000F930091C1000F710093C1000F910895B9
:100240000F930091C00005FFFCCF8093C6000F9173
:1002500008950AB102600E7F0AB908951F9300E065
:1002600017E60093C5001093C4001F9108950F93E3
:100270000091C00000620093C0000F9108950F9399
:100280000091C100803011F0046001C0077F00932D
:10029000C1000F9108950F930091C100803011F0BB
:1002A000056001C00F7E0093C1000F9108950F9368
:1002B0001F938F939F93AF93BF938F939F93AF930E
:1002C000BF9314E08F9165DF082F892FB9DF802F4E
:1002D000B7DF1A951030B1F78AE0B2DFBF91AF9166
:1002E0009F918F911F910F9108950F931F938F935B
:1002F0009F938F939F9312E08F914BDF082F892F4D
:100300009FDF802F9DDF1A951030B1F78AE098DFCC
:100310009F918F911F910F9108950F930091C100AC
:1003200006FD08D00F9108950F930FB707FD02D077
:100330000F9108950F931F9303B110E2012705B9A0
:100340001F910F9108950F9303B1006205B90F91AA
:1003500008950F9303B10F7D05B90F9108950F9381
:1003600000E204B90F9108950F931F932F933F93C9
:100370004F938C2F23D0282F8D2F20D0382F8827D4
:100380009C2F321BA2F0232F1D2F110F3A9509F03D
:10039000FCCF0C2F322F33958827880F202F211B5D
:1003A00012F08160022F3A9511F01695F6CF902F3A
:1003B0004F913F912F911F910F9108951F932F936C
:1003C0003F934F93482F8827342F20E818E032239B
:1003D00029F483952695342F1A95C9F74F913F91AB
:1003E0002F911F910895BEB7ADB7DF93CF93FF93C1
:1003F000EF93CC911297DC911296B6DFBEBFADBFE2
:1004000008952F9222248C2F9D2F8E1B9F0B8209E3
:100410002F9008952F922224AA27BB278C2F9D2F3F
:100420008E0F9F1FA21D2F9008952F922224DF9FD1
:10043000D001CE9FC001DE9F900DA11DB21DCF9FA8
:10044000900DA11DB21D2F900895990F880F08F4EB
:10045000916008958695969508F4806808950F93A5
:10046000CF93DF93DEB7CDB7BF93AF939F938F93B7
:10047000B7FD0DC00FEFB027A0279027802701E020
:100480008894800F00E0901FA01FB01F0CC001E0F7
:100490008894801B00E0900BA00BB00B0FEFB027EF
:1004A000A02790278027DEBFCDBFDF91CF910F918E
:1004B00008958F9384E4F2DD88E420DE7BD08F9171
:1004C0000895AF93BF93ADB7BEB78F93F7DD2DDE21
:1004D000883021F0803111F07CD015C08EEE11DE15
:1004E00024DE883111F075D00EC084EF0ADE1DDEE7
:1004F000883211F06ED007C08C9103DE16DE883290
:1005000011F067D000C0E6DDADBFBEBFBF91AF91B7
:100510000895AF93BF93ADB7BEB77F939F938F936B
:100520001597ADBFBEBF1596C9DDFFDD883011F050
:1005300050D034C08EEEE5DDF8DD883111F049D0C1
:100540002DC08C91DEDDF1DD883211F042D026C065
:10055000B5DDEBDD803111F03CD020C08FEED1DD78
:10056000E4DD803411F035D019C011978C911196CB
:10057000C8DDD1DD13978C931396D7DD803509F054
:1005800028D0FDDD12978C911296BBDDC4DD149747
:100590008C931496CADD883509F01BD09BDD7C91C5
:1005A00013979C9111978C911496ADBFBEBFBF91CC
:1005B000AF910895AF93BF93CF93DF93A1E0A09342
:1005C0000201A395A0930301DF91CF91BF91AF9159
:1005D00008950F9300910201013009F402D00F91A8
:1005E00008954BDD889508950F931F932F933F93A4
:1005F000AF93BF93CF93DF93ADB7BEB79F938F9366
:100600005097ADBFBEBF5096D1E0C4E1CF93DF930A
:10061000EF93FF932A96F8812196E8812B97DC913E
:100620001197CC911196EDDE192F082FFF91EF91C4
:10063000DF91CF91CF93DF93EF93FF93F12FE02FD3
:1006400028961881219608812997D12FC02FAF9322
:10065000BF93EBDE3B2F2A2F192F082FBF91AF91AD
:10066000FF91EF91DF91CF91012F0170122F110FA8
:10067000012B122F111F111F1170232F220F122B6C
:10068000232F221F221F2170332712973C9311978B
:100690002C9311971C9311970C9315968F93832F7E
:1006A00071D0822F6FD0812F6DD0802F6BD08F9122
:1006B000ADBFBEBFDF91CF91BF91AF913F912F9161
:1006C0001F910F9108958F93E1DCBB27AA278F918B
:1006D00018950FEF0DBF08E00EBF41DE81E057DD3A
:1006E0009CDDA6DDE6DE7894BFEFA4E290E080E03A
:1006F000B6DE8F938B2F46D08A2F44D0892F42D0DD
:100700008F9140D08895FECF08958F939F938EE26E
:10071000D8DE41D076EF96EF87EFFBDE8F93892FFF
:1007200031D08F912FD08F9380E02CD08F915CDFD0
:100730009F918F9108950F938F939F93AF93CF9332
:10074000DF93AAEAC4E1D1E00BE07A2F9A2FA395B8
:100750008A2FA395DEDE8F3F19F49F3F09F439DF1E
:10076000803019F4903009F434DF9883219688831F
:1007700021960A9551F7DF91CF91AF919F918F917B
:100780000F9108958F939F9304DD5ADD892F58DDD3
:100790009F918F9108952F933F934F932EEF3EEFAC
:1007A0004EEF4A95F1F73A95E1F72A95D1F74F9137
:0807B0003F912F910895189567
:1007B8000000000000000000000000000000000031
:1007C8000000000000000000000000000000000021
:1007D8000000000000000000000000000000000011
:1007E8000000000000000000000000000000000001
:1007F80000000000000000000000000000000000F1
:1008080000000000000000000000000000000000E0
:1008180000000000000000000000000000000000D0
:1008280000000000000000000000000000000000C0
:1008380000000000000000000000000000000000B0
:1008480000000000000000000000000000000000A0
:100858000000000008101828F80020300810405048
:10086800F8004858000000000000000000000000E8
:0A0878000000000000000000000076
:00000001FF
